{
  "contractName": "SupplyChain",
  "abi": [
    {
      "inputs": [],
      "stateMutability": "nonpayable",
      "type": "constructor"
    },
    {
      "anonymous": false,
      "inputs": [
        {
          "indexed": true,
          "internalType": "uint256",
          "name": "itemId",
          "type": "uint256"
        },
        {
          "indexed": false,
          "internalType": "string",
          "name": "name",
          "type": "string"
        },
        {
          "indexed": true,
          "internalType": "address",
          "name": "owner",
          "type": "address"
        }
      ],
      "name": "ItemCreated",
      "type": "event"
    },
    {
      "anonymous": false,
      "inputs": [
        {
          "indexed": true,
          "internalType": "uint256",
          "name": "itemId",
          "type": "uint256"
        },
        {
          "indexed": false,
          "internalType": "enum SupplyChain.State",
          "name": "newState",
          "type": "uint8"
        },
        {
          "indexed": true,
          "internalType": "address",
          "name": "actor",
          "type": "address"
        }
      ],
      "name": "StateUpdated",
      "type": "event"
    },
    {
      "inputs": [
        {
          "internalType": "address",
          "name": "",
          "type": "address"
        }
      ],
      "name": "isParticipant",
      "outputs": [
        {
          "internalType": "bool",
          "name": "",
          "type": "bool"
        }
      ],
      "stateMutability": "view",
      "type": "function"
    },
    {
      "inputs": [
        {
          "internalType": "uint256",
          "name": "",
          "type": "uint256"
        },
        {
          "internalType": "uint256",
          "name": "",
          "type": "uint256"
        }
      ],
      "name": "itemHistory",
      "outputs": [
        {
          "internalType": "uint256",
          "name": "timestamp",
          "type": "uint256"
        },
        {
          "internalType": "enum SupplyChain.State",
          "name": "state",
          "type": "uint8"
        },
        {
          "internalType": "address",
          "name": "actor",
          "type": "address"
        }
      ],
      "stateMutability": "view",
      "type": "function"
    },
    {
      "inputs": [
        {
          "internalType": "uint256",
          "name": "",
          "type": "uint256"
        }
      ],
      "name": "items",
      "outputs": [
        {
          "internalType": "uint256",
          "name": "id",
          "type": "uint256"
        },
        {
          "internalType": "string",
          "name": "name",
          "type": "string"
        },
        {
          "internalType": "address",
          "name": "currentOwner",
          "type": "address"
        },
        {
          "internalType": "enum SupplyChain.State",
          "name": "currentState",
          "type": "uint8"
        }
      ],
      "stateMutability": "view",
      "type": "function"
    },
    {
      "inputs": [],
      "name": "owner",
      "outputs": [
        {
          "internalType": "address",
          "name": "",
          "type": "address"
        }
      ],
      "stateMutability": "view",
      "type": "function"
    },
    {
      "inputs": [
        {
          "internalType": "address",
          "name": "_participant",
          "type": "address"
        }
      ],
      "name": "addParticipant",
      "outputs": [],
      "stateMutability": "nonpayable",
      "type": "function"
    },
    {
      "inputs": [
        {
          "internalType": "string",
          "name": "_name",
          "type": "string"
        }
      ],
      "name": "createItem",
      "outputs": [],
      "stateMutability": "nonpayable",
      "type": "function"
    },
    {
      "inputs": [
        {
          "internalType": "uint256",
          "name": "_itemId",
          "type": "uint256"
        },
        {
          "internalType": "enum SupplyChain.State",
          "name": "_newState",
          "type": "uint8"
        }
      ],
      "name": "updateItemState",
      "outputs": [],
      "stateMutability": "nonpayable",
      "type": "function"
    },
    {
      "inputs": [
        {
          "internalType": "uint256",
          "name": "_itemId",
          "type": "uint256"
        },
        {
          "internalType": "address",
          "name": "_newOwner",
          "type": "address"
        }
      ],
      "name": "transferItem",
      "outputs": [],
      "stateMutability": "nonpayable",
      "type": "function"
    },
    {
      "inputs": [
        {
          "internalType": "uint256",
          "name": "_itemId",
          "type": "uint256"
        }
      ],
      "name": "getItemHistory",
      "outputs": [
        {
          "components": [
            {
              "internalType": "uint256",
              "name": "timestamp",
              "type": "uint256"
            },
            {
              "internalType": "enum SupplyChain.State",
              "name": "state",
              "type": "uint8"
            },
            {
              "internalType": "address",
              "name": "actor",
              "type": "address"
            }
          ],
          "internalType": "struct SupplyChain.HistoryLog[]",
          "name": "",
          "type": "tuple[]"
        }
      ],
      "stateMutability": "view",
      "type": "function"
    }
  ],
  "bytecode": "0x608060405234801561000f575f80fd5b503360045f6101000a81548173ffffffffffffffffffffffffffffffffffffffff021916908373ffffffffffffffffffffffffffffffffffffffff160217905550600160035f3373ffffffffffffffffffffffffffffffffffffffff1673ffffffffffffffffffffffffffffffffffffffff1681526020019081526020015f205f6101000a81548160ff0219169083151502179055505f8081905550611ad5806100b85f395ff3fe608060405234801561000f575f80fd5b5060043610610091575f3560e01c80638da5cb5b116100645780638da5cb5b1461012f578063929066f51461014d578063a42291011461017d578063bfb231d214610199578063dfafe10f146101cc57610091565b8063187f43f61461009557806336bcf338146100b15780633d54eebb146100e357806366c64e51146100ff575b5f80fd5b6100af60048036038101906100aa9190610d9b565b6101e8565b005b6100cb60048036038101906100c69190610dd9565b610400565b6040516100da93929190610ed8565b60405180910390f35b6100fd60048036038101906100f89190611049565b61046c565b005b61011960048036038101906101149190611090565b61065d565b60405161012691906111d0565b60405180910390f35b610137610763565b60405161014491906111f0565b60405180910390f35b61016760048036038101906101629190611233565b610788565b6040516101749190611278565b60405180910390f35b61019760048036038101906101929190611291565b6107a5565b005b6101b360048036038101906101ae9190611090565b610a03565b6040516101c39493929190611349565b60405180910390f35b6101e660048036038101906101e19190611233565b610ae1565b005b60035f3373ffffffffffffffffffffffffffffffffffffffff1673ffffffffffffffffffffffffffffffffffffffff1681526020019081526020015f205f9054906101000a900460ff16610271576040517f08c379a000000000000000000000000000000000000000000000000000000000815260040161026890611403565b60405180910390fd5b8160015f8481526020019081526020015f205f0154146102c6576040517f08c379a00000000000000000000000000000000000000000000000000000000081526004016102bd9061146b565b60405180910390fd5b3373ffffffffffffffffffffffffffffffffffffffff1660015f8481526020019081526020015f206002015f9054906101000a900473ffffffffffffffffffffffffffffffffffffffff1673ffffffffffffffffffffffffffffffffffffffff1614610367576040517f08c379a000000000000000000000000000000000000000000000000000000000815260040161035e906114f9565b60405180910390fd5b8060015f8481526020019081526020015f2060020160146101000a81548160ff0219169083600381111561039e5761039d610e26565b5b02179055506103ad8282610c36565b3373ffffffffffffffffffffffffffffffffffffffff16827fa66bb13976db087fcc6592442279eccca6d77758a9b5ec5c94262adb6975487a836040516103f49190611517565b60405180910390a35050565b6002602052815f5260405f208181548110610419575f80fd5b905f5260205f2090600202015f9150915050805f015490806001015f9054906101000a900460ff16908060010160019054906101000a900473ffffffffffffffffffffffffffffffffffffffff16905083565b60035f3373ffffffffffffffffffffffffffffffffffffffff1673ffffffffffffffffffffffffffffffffffffffff1681526020019081526020015f205f9054906101000a900460ff166104f5576040517f08c379a00000000000000000000000000000000000000000000000000000000081526004016104ec90611403565b60405180910390fd5b5f8054905060405180608001604052808281526020018381526020013373ffffffffffffffffffffffffffffffffffffffff1681526020015f60038111156105405761053f610e26565b5b81525060015f8381526020019081526020015f205f820151815f01556020820151816001019081610571919061172a565b506040820151816002015f6101000a81548173ffffffffffffffffffffffffffffffffffffffff021916908373ffffffffffffffffffffffffffffffffffffffff16021790555060608201518160020160146101000a81548160ff021916908360038111156105e3576105e2610e26565b5b02179055509050506105f5815f610c36565b3373ffffffffffffffffffffffffffffffffffffffff16817efd4d38e2e6a0a8a90d326b227b226214bb94c92231097ba085de4450b5e0f68460405161063b91906117f9565b60405180910390a35f8081548092919061065490611846565b91905055505050565b606060025f8381526020019081526020015f20805480602002602001604051908101604052809291908181526020015f905b82821015610758578382905f5260205f2090600202016040518060600160405290815f8201548152602001600182015f9054906101000a900460ff1660038111156106dd576106dc610e26565b5b60038111156106ef576106ee610e26565b5b81526020016001820160019054906101000a900473ffffffffffffffffffffffffffffffffffffffff1673ffffffffffffffffffffffffffffffffffffffff1673ffffffffffffffffffffffffffffffffffffffff16815250508152602001906001019061068f565b505050509050919050565b60045f9054906101000a900473ffffffffffffffffffffffffffffffffffffffff1681565b6003602052805f5260405f205f915054906101000a900460ff1681565b60035f3373ffffffffffffffffffffffffffffffffffffffff1673ffffffffffffffffffffffffffffffffffffffff1681526020019081526020015f205f9054906101000a900460ff1661082e576040517f08c379a000000000000000000000000000000000000000000000000000000000815260040161082590611403565b60405180910390fd5b8160015f8481526020019081526020015f205f015414610883576040517f08c379a000000000000000000000000000000000000000000000000000000000815260040161087a9061146b565b60405180910390fd5b3373ffffffffffffffffffffffffffffffffffffffff1660015f8481526020019081526020015f206002015f9054906101000a900473ffffffffffffffffffffffffffffffffffffffff1673ffffffffffffffffffffffffffffffffffffffff1614610924576040517f08c379a000000000000000000000000000000000000000000000000000000000815260040161091b906118fd565b60405180910390fd5b60035f8273ffffffffffffffffffffffffffffffffffffffff1673ffffffffffffffffffffffffffffffffffffffff1681526020019081526020015f205f9054906101000a900460ff166109ad576040517f08c379a00000000000000000000000000000000000000000000000000000000081526004016109a49061198b565b60405180910390fd5b8060015f8481526020019081526020015f206002015f6101000a81548173ffffffffffffffffffffffffffffffffffffffff021916908373ffffffffffffffffffffffffffffffffffffffff1602179055505050565b6001602052805f5260405f205f91509050805f015490806001018054610a289061155d565b80601f0160208091040260200160405190810160405280929190818152602001828054610a549061155d565b8015610a9f5780601f10610a7657610100808354040283529160200191610a9f565b820191905f5260205f20905b815481529060010190602001808311610a8257829003601f168201915b505050505090806002015f9054906101000a900473ffffffffffffffffffffffffffffffffffffffff16908060020160149054906101000a900460ff16905084565b60045f9054906101000a900473ffffffffffffffffffffffffffffffffffffffff1673ffffffffffffffffffffffffffffffffffffffff163373ffffffffffffffffffffffffffffffffffffffff1614610b70576040517f08c379a0000000000000000000000000000000000000000000000000000000008152600401610b6790611a19565b60405180910390fd5b5f73ffffffffffffffffffffffffffffffffffffffff168173ffffffffffffffffffffffffffffffffffffffff1603610bde576040517f08c379a0000000000000000000000000000000000000000000000000000000008152600401610bd590611a81565b60405180910390fd5b600160035f8373ffffffffffffffffffffffffffffffffffffffff1673ffffffffffffffffffffffffffffffffffffffff1681526020019081526020015f205f6101000a81548160ff02191690831515021790555050565b60025f8381526020019081526020015f206040518060600160405280428152602001836003811115610c6b57610c6a610e26565b5b81526020013373ffffffffffffffffffffffffffffffffffffffff16815250908060018154018082558091505060019003905f5260205f2090600202015f909190919091505f820151815f01556020820151816001015f6101000a81548160ff02191690836003811115610ce257610ce1610e26565b5b021790555060408201518160010160016101000a81548173ffffffffffffffffffffffffffffffffffffffff021916908373ffffffffffffffffffffffffffffffffffffffff16021790555050505050565b5f604051905090565b5f80fd5b5f80fd5b5f819050919050565b610d5781610d45565b8114610d61575f80fd5b50565b5f81359050610d7281610d4e565b92915050565b60048110610d84575f80fd5b50565b5f81359050610d9581610d78565b92915050565b5f8060408385031215610db157610db0610d3d565b5b5f610dbe85828601610d64565b9250506020610dcf85828601610d87565b9150509250929050565b5f8060408385031215610def57610dee610d3d565b5b5f610dfc85828601610d64565b9250506020610e0d85828601610d64565b9150509250929050565b610e2081610d45565b82525050565b7f4e487b71000000000000000000000000000000000000000000000000000000005f52602160045260245ffd5b60048110610e6457610e63610e26565b5b50565b5f819050610e7482610e53565b919050565b5f610e8382610e67565b9050919050565b610e9381610e79565b82525050565b5f73ffffffffffffffffffffffffffffffffffffffff82169050919050565b5f610ec282610e99565b9050919050565b610ed281610eb8565b82525050565b5f606082019050610eeb5f830186610e17565b610ef86020830185610e8a565b610f056040830184610ec9565b949350505050565b5f80fd5b5f80fd5b5f601f19601f8301169050919050565b7f4e487b71000000000000000000000000000000000000000000000000000000005f52604160045260245ffd5b610f5b82610f15565b810181811067ffffffffffffffff82111715610f7a57610f79610f25565b5b80604052505050565b5f610f8c610d34565b9050610f988282610f52565b919050565b5f67ffffffffffffffff821115610fb757610fb6610f25565b5b610fc082610f15565b9050602081019050919050565b828183375f83830152505050565b5f610fed610fe884610f9d565b610f83565b90508281526020810184848401111561100957611008610f11565b5b611014848285610fcd565b509392505050565b5f82601f8301126110305761102f610f0d565b5b8135611040848260208601610fdb565b91505092915050565b5f6020828403121561105e5761105d610d3d565b5b5f82013567ffffffffffffffff81111561107b5761107a610d41565b5b6110878482850161101c565b91505092915050565b5f602082840312156110a5576110a4610d3d565b5b5f6110b284828501610d64565b91505092915050565b5f81519050919050565b5f82825260208201905092915050565b5f819050602082019050919050565b6110ed81610d45565b82525050565b6110fc81610e79565b82525050565b61110b81610eb8565b82525050565b606082015f8201516111255f8501826110e4565b50602082015161113860208501826110f3565b50604082015161114b6040850182611102565b50505050565b5f61115c8383611111565b60608301905092915050565b5f602082019050919050565b5f61117e826110bb565b61118881856110c5565b9350611193836110d5565b805f5b838110156111c35781516111aa8882611151565b97506111b583611168565b925050600181019050611196565b5085935050505092915050565b5f6020820190508181035f8301526111e88184611174565b905092915050565b5f6020820190506112035f830184610ec9565b92915050565b61121281610eb8565b811461121c575f80fd5b50565b5f8135905061122d81611209565b92915050565b5f6020828403121561124857611247610d3d565b5b5f6112558482850161121f565b91505092915050565b5f8115159050919050565b6112728161125e565b82525050565b5f60208201905061128b5f830184611269565b92915050565b5f80604083850312156112a7576112a6610d3d565b5b5f6112b485828601610d64565b92505060206112c58582860161121f565b9150509250929050565b5f81519050919050565b5f82825260208201905092915050565b5f5b838110156113065780820151818401526020810190506112eb565b5f8484015250505050565b5f61131b826112cf565b61132581856112d9565b93506113358185602086016112e9565b61133e81610f15565b840191505092915050565b5f60808201905061135c5f830187610e17565b818103602083015261136e8186611311565b905061137d6040830185610ec9565b61138a6060830184610e8a565b95945050505050565b7f596f7520617265206e6f7420616e20617574686f72697a6564207061727469635f8201527f6970616e74000000000000000000000000000000000000000000000000000000602082015250565b5f6113ed6025836112d9565b91506113f882611393565b604082019050919050565b5f6020820190508181035f83015261141a816113e1565b9050919050565b7f4974656d20646f6573206e6f74206578697374000000000000000000000000005f82015250565b5f6114556013836112d9565b915061146082611421565b602082019050919050565b5f6020820190508181035f83015261148281611449565b9050919050565b7f596f7520617265206e6f74207468652063757272656e74206f776e65722f68615f8201527f6e646c6572206f6620746865206974656d000000000000000000000000000000602082015250565b5f6114e36031836112d9565b91506114ee82611489565b604082019050919050565b5f6020820190508181035f830152611510816114d7565b9050919050565b5f60208201905061152a5f830184610e8a565b92915050565b7f4e487b71000000000000000000000000000000000000000000000000000000005f52602260045260245ffd5b5f600282049050600182168061157457607f821691505b60208210810361158757611586611530565b5b50919050565b5f819050815f5260205f209050919050565b5f6020601f8301049050919050565b5f82821b905092915050565b5f600883026115e97fffffffffffffffffffffffffffffffffffffffffffffffffffffffffffffffff826115ae565b6115f386836115ae565b95508019841693508086168417925050509392505050565b5f819050919050565b5f61162e61162961162484610d45565b61160b565b610d45565b9050919050565b5f819050919050565b61164783611614565b61165b61165382611635565b8484546115ba565b825550505050565b5f90565b61166f611663565b61167a81848461163e565b505050565b5b8181101561169d576116925f82611667565b600181019050611680565b5050565b601f8211156116e2576116b38161158d565b6116bc8461159f565b810160208510156116cb578190505b6116df6116d78561159f565b83018261167f565b50505b505050565b5f82821c905092915050565b5f6117025f19846008026116e7565b1980831691505092915050565b5f61171a83836116f3565b9150826002028217905092915050565b611733826112cf565b67ffffffffffffffff81111561174c5761174b610f25565b5b611756825461155d565b6117618282856116a1565b5f60209050601f831160018114611792575f8415611780578287015190505b61178a858261170f565b8655506117f1565b601f1984166117a08661158d565b5f5b828110156117c7578489015182556001820191506020850194506020810190506117a2565b868310156117e457848901516117e0601f8916826116f3565b8355505b6001600288020188555050505b505050505050565b5f6020820190508181035f8301526118118184611311565b905092915050565b7f4e487b71000000000000000000000000000000000000000000000000000000005f52601160045260245ffd5b5f61185082610d45565b91507fffffffffffffffffffffffffffffffffffffffffffffffffffffffffffffffff820361188257611881611819565b5b600182019050919050565b7f596f7520617265206e6f74207468652063757272656e74206f776e65722f68615f8201527f6e646c6572000000000000000000000000000000000000000000000000000000602082015250565b5f6118e76025836112d9565b91506118f28261188d565b604082019050919050565b5f6020820190508181035f830152611914816118db565b9050919050565b7f546865206e6577206f776e6572206d75737420626520616e20617574686f72695f8201527f7a6564207061727469636970616e740000000000000000000000000000000000602082015250565b5f611975602f836112d9565b91506119808261191b565b604082019050919050565b5f6020820190508181035f8301526119a281611969565b9050919050565b7f4f6e6c7920746865206f776e65722063616e2063616c6c20746869732066756e5f8201527f6374696f6e000000000000000000000000000000000000000000000000000000602082015250565b5f611a036025836112d9565b9150611a0e826119a9565b604082019050919050565b5f6020820190508181035f830152611a30816119f7565b9050919050565b7f496e76616c6964206164647265737300000000000000000000000000000000005f82015250565b5f611a6b600f836112d9565b9150611a7682611a37565b602082019050919050565b5f6020820190508181035f830152611a9881611a5f565b905091905056fea2646970667358221220036c9314eeafe29058cbc01dd6e60c9d1fa5f5d756c0aeec0003099f250e47a464736f6c63430008150033",
  "immutableReferences": {},
  "source": "// SPDX-License-Identifier: MIT\r\npragma solidity ^0.8.20;\r\n\r\n/**\r\n * @title SupplyChain\r\n * @dev A smart contract to track items through a supply chain.\r\n */\r\ncontract SupplyChain {\r\n    // A counter to ensure each item has a unique ID\r\n    uint256 private s_itemCounter;\r\n\r\n    // Enum to represent the different states an item can be in\r\n    enum State { Created, InTransit, ArrivedAtRetailer, Sold }\r\n\r\n    // Struct to hold all the information about a single item\r\n    struct Item {\r\n        uint256 id;\r\n        string name;\r\n        address currentOwner;\r\n        State currentState;\r\n    }\r\n\r\n    // Struct to represent a single step in an item's history\r\n    struct HistoryLog {\r\n        uint256 timestamp;\r\n        State state;\r\n        address actor; // The address that performed the action\r\n    }\r\n\r\n    // Mapping from an item's ID to its details\r\n    mapping(uint256 => Item) public items;\r\n    // Mapping from an item's ID to its entire history log\r\n    mapping(uint256 => HistoryLog[]) public itemHistory;\r\n    // Mapping to store addresses of authorized participants (e.g., shippers, retailers)\r\n    mapping(address => bool) public isParticipant;\r\n\r\n    // The owner of the contract, who can add participants\r\n    address public owner;\r\n\r\n    // Events to notify the outside world (our web app) of important changes\r\n    event ItemCreated(uint256 indexed itemId, string name, address indexed owner);\r\n    event StateUpdated(uint256 indexed itemId, State newState, address indexed actor);\r\n\r\n    // Modifier to restrict a function to be called only by the contract owner\r\n    modifier onlyOwner() {\r\n        require(msg.sender == owner, \"Only the owner can call this function\");\r\n        _;\r\n    }\r\n\r\n    // Modifier to restrict a function to be called only by an authorized participant\r\n    modifier onlyParticipant() {\r\n        require(isParticipant[msg.sender], \"You are not an authorized participant\");\r\n        _;\r\n    }\r\n\r\n    /**\r\n     * @dev The constructor sets the contract creator as the owner.\r\n     * The owner is also automatically a participant.\r\n     */\r\n    constructor() {\r\n        owner = msg.sender;\r\n        isParticipant[msg.sender] = true; // The creator is the first participant\r\n        s_itemCounter = 0;\r\n    }\r\n\r\n    /**\r\n     * @notice Adds a new address to the list of authorized participants.\r\n     * @param _participant The address of the new participant.\r\n     */\r\n    function addParticipant(address _participant) public onlyOwner {\r\n        require(_participant != address(0), \"Invalid address\");\r\n        isParticipant[_participant] = true;\r\n    }\r\n\r\n    /**\r\n     * @notice Creates a new item in the supply chain.\r\n     * @param _name The name of the item (e.g., \"Organic Coffee Batch #123\").\r\n     */\r\n    function createItem(string memory _name) public onlyParticipant {\r\n        uint256 itemId = s_itemCounter;\r\n        items[itemId] = Item({\r\n            id: itemId,\r\n            name: _name,\r\n            currentOwner: msg.sender,\r\n            currentState: State.Created\r\n        });\r\n\r\n        // Add the first entry to its history\r\n        _logHistory(itemId, State.Created);\r\n        \r\n        emit ItemCreated(itemId, _name, msg.sender);\r\n        s_itemCounter++;\r\n    }\r\n\r\n    /**\r\n     * @notice Updates the state of an existing item.\r\n     * @param _itemId The ID of the item to update.\r\n     * @param _newState The new state of the item.\r\n     */\r\n    function updateItemState(uint256 _itemId, State _newState) public onlyParticipant {\r\n        require(items[_itemId].id == _itemId, \"Item does not exist\");\r\n        require(items[_itemId].currentOwner == msg.sender, \"You are not the current owner/handler of the item\");\r\n\r\n        items[_itemId].currentState = _newState;\r\n        _logHistory(_itemId, _newState);\r\n\r\n        emit StateUpdated(_itemId, _newState, msg.sender);\r\n    }\r\n    \r\n    /**\r\n     * @notice Transfers handling of the item to a new participant.\r\n     * @param _itemId The ID of the item to transfer.\r\n     * @param _newOwner The address of the new participant who will handle the item.\r\n     */\r\n    function transferItem(uint256 _itemId, address _newOwner) public onlyParticipant {\r\n        require(items[_itemId].id == _itemId, \"Item does not exist\");\r\n        require(items[_itemId].currentOwner == msg.sender, \"You are not the current owner/handler\");\r\n        require(isParticipant[_newOwner], \"The new owner must be an authorized participant\");\r\n        \r\n        items[_itemId].currentOwner = _newOwner;\r\n    }\r\n\r\n    /**\r\n     * @dev Internal function to log a history entry.\r\n     */\r\n    function _logHistory(uint256 _itemId, State _state) private {\r\n        itemHistory[_itemId].push(HistoryLog({\r\n            timestamp: block.timestamp,\r\n            state: _state,\r\n            actor: msg.sender\r\n        }));\r\n    }\r\n\r\n    /**\r\n     * @notice Fetches the entire history for a given item.\r\n     * @return A list of all history logs for the item.\r\n     */\r\n    function getItemHistory(uint256 _itemId) public view returns (HistoryLog[] memory) {\r\n        return itemHistory[_itemId];\r\n    }\r\n}",
  "sourcePath": "C:\\Users\\Chirag Gajbhiye\\OneDrive\\Desktop\\supply chain\\supply-chain-truffle\\contracts\\SupplyChain.sol",
  "compiler": {
    "name": "solc",
    "version": "0.8.21+commit.d9974bed.Emscripten.clang"
  },
  "schemaVersion": "3.4.16",
  "updatedAt": "2025-09-02T21:06:05.699Z",
  "devdoc": {
    "details": "A smart contract to track items through a supply chain.",
    "kind": "dev",
    "methods": {
      "addParticipant(address)": {
        "params": {
          "_participant": "The address of the new participant."
        }
      },
      "constructor": {
        "details": "The constructor sets the contract creator as the owner. The owner is also automatically a participant."
      },
      "createItem(string)": {
        "params": {
          "_name": "The name of the item (e.g., \"Organic Coffee Batch #123\")."
        }
      },
      "getItemHistory(uint256)": {
        "returns": {
          "_0": "A list of all history logs for the item."
        }
      },
      "transferItem(uint256,address)": {
        "params": {
          "_itemId": "The ID of the item to transfer.",
          "_newOwner": "The address of the new participant who will handle the item."
        }
      },
      "updateItemState(uint256,uint8)": {
        "params": {
          "_itemId": "The ID of the item to update.",
          "_newState": "The new state of the item."
        }
      }
    },
    "title": "SupplyChain",
    "version": 1
  },
  "userdoc": {
    "kind": "user",
    "methods": {
      "addParticipant(address)": {
        "notice": "Adds a new address to the list of authorized participants."
      },
      "createItem(string)": {
        "notice": "Creates a new item in the supply chain."
      },
      "getItemHistory(uint256)": {
        "notice": "Fetches the entire history for a given item."
      },
      "transferItem(uint256,address)": {
        "notice": "Transfers handling of the item to a new participant."
      },
      "updateItemState(uint256,uint8)": {
        "notice": "Updates the state of an existing item."
      }
    },
    "version": 1
  }
}